{
  "_format": "hh-sol-artifact-1",
  "contractName": "Stacking",
  "sourceName": "contracts/Staking_Contract.sol",
  "abi": [
    {
      "inputs": [
        {
          "internalType": "uint256",
          "name": "_timeToDouble",
          "type": "uint256"
        },
        {
          "internalType": "uint256",
          "name": "_poolLength",
          "type": "uint256"
        },
        {
          "internalType": "uint256",
          "name": "_firstPoolStartIn",
          "type": "uint256"
        },
        {
          "internalType": "address",
          "name": "_prime",
          "type": "address"
        }
      ],
      "stateMutability": "nonpayable",
      "type": "constructor"
    },
    {
      "inputs": [],
      "name": "ClaimedUpToPool",
      "type": "error"
    },
    {
      "inputs": [],
      "name": "Insuffient_balance",
      "type": "error"
    },
    {
      "inputs": [],
      "name": "InvalidPool",
      "type": "error"
    },
    {
      "inputs": [],
      "name": "NothingStaked",
      "type": "error"
    },
    {
      "anonymous": false,
      "inputs": [
        {
          "indexed": true,
          "internalType": "address",
          "name": "owner",
          "type": "address"
        },
        {
          "indexed": true,
          "internalType": "address",
          "name": "spender",
          "type": "address"
        },
        {
          "indexed": false,
          "internalType": "uint256",
          "name": "value",
          "type": "uint256"
        }
      ],
      "name": "Approval",
      "type": "event"
    },
    {
      "anonymous": false,
      "inputs": [
        {
          "indexed": true,
          "internalType": "address",
          "name": "from",
          "type": "address"
        },
        {
          "indexed": false,
          "internalType": "uint256",
          "name": "newAmount",
          "type": "uint256"
        },
        {
          "indexed": false,
          "internalType": "uint256",
          "name": "newWeightAmount",
          "type": "uint256"
        }
      ],
      "name": "StakeDetails",
      "type": "event"
    },
    {
      "anonymous": false,
      "inputs": [
        {
          "indexed": true,
          "internalType": "address",
          "name": "from",
          "type": "address"
        },
        {
          "indexed": true,
          "internalType": "address",
          "name": "to",
          "type": "address"
        },
        {
          "indexed": false,
          "internalType": "uint256",
          "name": "value",
          "type": "uint256"
        }
      ],
      "name": "Transfer",
      "type": "event"
    },
    {
      "anonymous": false,
      "inputs": [
        {
          "indexed": false,
          "internalType": "address",
          "name": "from",
          "type": "address"
        },
        {
          "indexed": false,
          "internalType": "uint256",
          "name": "amount",
          "type": "uint256"
        }
      ],
      "name": "Unstaked",
      "type": "event"
    },
    {
      "inputs": [],
      "name": "_contractWeight",
      "outputs": [
        {
          "internalType": "uint256",
          "name": "",
          "type": "uint256"
        }
      ],
      "stateMutability": "view",
      "type": "function"
    },
    {
      "inputs": [
        {
          "internalType": "address",
          "name": "",
          "type": "address"
        },
        {
          "internalType": "uint256",
          "name": "",
          "type": "uint256"
        }
      ],
      "name": "_userWeightAtPool",
      "outputs": [
        {
          "internalType": "uint256",
          "name": "",
          "type": "uint256"
        }
      ],
      "stateMutability": "view",
      "type": "function"
    },
    {
      "inputs": [
        {
          "internalType": "address",
          "name": "owner",
          "type": "address"
        },
        {
          "internalType": "address",
          "name": "spender",
          "type": "address"
        }
      ],
      "name": "allowance",
      "outputs": [
        {
          "internalType": "uint256",
          "name": "",
          "type": "uint256"
        }
      ],
      "stateMutability": "view",
      "type": "function"
    },
    {
      "inputs": [
        {
          "internalType": "address",
          "name": "spender",
          "type": "address"
        },
        {
          "internalType": "uint256",
          "name": "amount",
          "type": "uint256"
        }
      ],
      "name": "approve",
      "outputs": [
        {
          "internalType": "bool",
          "name": "",
          "type": "bool"
        }
      ],
      "stateMutability": "nonpayable",
      "type": "function"
    },
    {
      "inputs": [
        {
          "internalType": "address",
          "name": "account",
          "type": "address"
        }
      ],
      "name": "balanceOf",
      "outputs": [
        {
          "internalType": "uint256",
          "name": "",
          "type": "uint256"
        }
      ],
      "stateMutability": "view",
      "type": "function"
    },
    {
      "inputs": [
        {
          "internalType": "address",
          "name": "_to",
          "type": "address"
        }
      ],
      "name": "claim",
      "outputs": [],
      "stateMutability": "nonpayable",
      "type": "function"
    },
    {
      "inputs": [
        {
          "internalType": "address",
          "name": "_user",
          "type": "address"
        },
        {
          "internalType": "uint256",
          "name": "_poolId",
          "type": "uint256"
        }
      ],
      "name": "claimAmountForPool",
      "outputs": [
        {
          "internalType": "uint256",
          "name": "claimable_",
          "type": "uint256"
        }
      ],
      "stateMutability": "view",
      "type": "function"
    },
    {
      "inputs": [
        {
          "internalType": "address",
          "name": "",
          "type": "address"
        }
      ],
      "name": "claimLeftOff",
      "outputs": [
        {
          "internalType": "uint256",
          "name": "",
          "type": "uint256"
        }
      ],
      "stateMutability": "view",
      "type": "function"
    },
    {
      "inputs": [],
      "name": "contractWeight",
      "outputs": [
        {
          "internalType": "uint256",
          "name": "contractWeight_",
          "type": "uint256"
        }
      ],
      "stateMutability": "view",
      "type": "function"
    },
    {
      "inputs": [
        {
          "internalType": "uint256",
          "name": "_poolId",
          "type": "uint256"
        }
      ],
      "name": "contractWeightAtPool",
      "outputs": [
        {
          "internalType": "uint256",
          "name": "contractWeight_",
          "type": "uint256"
        }
      ],
      "stateMutability": "view",
      "type": "function"
    },
    {
      "inputs": [],
      "name": "currentPool",
      "outputs": [
        {
          "internalType": "uint256",
          "name": "volume",
          "type": "uint256"
        },
        {
          "internalType": "uint256",
          "name": "totalClaimed",
          "type": "uint256"
        },
        {
          "internalType": "uint256",
          "name": "startTime",
          "type": "uint256"
        },
        {
          "internalType": "uint256",
          "name": "endTime",
          "type": "uint256"
        },
        {
          "internalType": "uint256",
          "name": "weightAtEnd",
          "type": "uint256"
        }
      ],
      "stateMutability": "view",
      "type": "function"
    },
    {
      "inputs": [],
      "name": "decimals",
      "outputs": [
        {
          "internalType": "uint8",
          "name": "",
          "type": "uint8"
        }
      ],
      "stateMutability": "view",
      "type": "function"
    },
    {
      "inputs": [
        {
          "internalType": "address",
          "name": "spender",
          "type": "address"
        },
        {
          "internalType": "uint256",
          "name": "subtractedValue",
          "type": "uint256"
        }
      ],
      "name": "decreaseAllowance",
      "outputs": [
        {
          "internalType": "bool",
          "name": "",
          "type": "bool"
        }
      ],
      "stateMutability": "nonpayable",
      "type": "function"
    },
    {
      "inputs": [
        {
          "internalType": "address",
          "name": "spender",
          "type": "address"
        },
        {
          "internalType": "uint256",
          "name": "addedValue",
          "type": "uint256"
        }
      ],
      "name": "increaseAllowance",
      "outputs": [
        {
          "internalType": "bool",
          "name": "",
          "type": "bool"
        }
      ],
      "stateMutability": "nonpayable",
      "type": "function"
    },
    {
      "inputs": [],
      "name": "lastInteraction",
      "outputs": [
        {
          "internalType": "uint256",
          "name": "",
          "type": "uint256"
        }
      ],
      "stateMutability": "view",
      "type": "function"
    },
    {
      "inputs": [
        {
          "internalType": "address",
          "name": "account",
          "type": "address"
        },
        {
          "internalType": "uint256",
          "name": "amount",
          "type": "uint256"
        }
      ],
      "name": "mintToken",
      "outputs": [],
      "stateMutability": "nonpayable",
      "type": "function"
    },
    {
      "inputs": [],
      "name": "name",
      "outputs": [
        {
          "internalType": "string",
          "name": "",
          "type": "string"
        }
      ],
      "stateMutability": "view",
      "type": "function"
    },
    {
      "inputs": [],
      "name": "pendingRewards",
      "outputs": [
        {
          "internalType": "uint256",
          "name": "pendingRewards_",
          "type": "uint256"
        }
      ],
      "stateMutability": "view",
      "type": "function"
    },
    {
      "inputs": [
        {
          "internalType": "uint256",
          "name": "",
          "type": "uint256"
        }
      ],
      "name": "poolDetails",
      "outputs": [
        {
          "internalType": "uint256",
          "name": "volume",
          "type": "uint256"
        },
        {
          "internalType": "uint256",
          "name": "totalClaimed",
          "type": "uint256"
        },
        {
          "internalType": "uint256",
          "name": "startTime",
          "type": "uint256"
        },
        {
          "internalType": "uint256",
          "name": "endTime",
          "type": "uint256"
        },
        {
          "internalType": "uint256",
          "name": "weightAtEnd",
          "type": "uint256"
        }
      ],
      "stateMutability": "view",
      "type": "function"
    },
    {
      "inputs": [],
      "name": "poolId",
      "outputs": [
        {
          "internalType": "uint256",
          "name": "",
          "type": "uint256"
        }
      ],
      "stateMutability": "view",
      "type": "function"
    },
    {
      "inputs": [
        {
          "internalType": "address",
          "name": "",
          "type": "address"
        }
      ],
      "name": "poolLeftOff",
      "outputs": [
        {
          "internalType": "uint256",
          "name": "",
          "type": "uint256"
        }
      ],
      "stateMutability": "view",
      "type": "function"
    },
    {
      "inputs": [],
      "name": "poolLength",
      "outputs": [
        {
          "internalType": "uint256",
          "name": "",
          "type": "uint256"
        }
      ],
      "stateMutability": "view",
      "type": "function"
    },
    {
      "inputs": [],
      "name": "prime",
      "outputs": [
        {
          "internalType": "address",
          "name": "",
          "type": "address"
        }
      ],
      "stateMutability": "view",
      "type": "function"
    },
    {
      "inputs": [
        {
          "internalType": "uint256",
          "name": "amount",
          "type": "uint256"
        }
      ],
      "name": "stak",
      "outputs": [],
      "stateMutability": "nonpayable",
      "type": "function"
    },
    {
      "inputs": [
        {
          "internalType": "address",
          "name": "",
          "type": "address"
        }
      ],
      "name": "stakeDetails",
      "outputs": [
        {
          "internalType": "uint256",
          "name": "amountStaked",
          "type": "uint256"
        },
        {
          "internalType": "uint256",
          "name": "lastInteraction",
          "type": "uint256"
        },
        {
          "internalType": "uint256",
          "name": "weightAtLastInteraction",
          "type": "uint256"
        }
      ],
      "stateMutability": "view",
      "type": "function"
    },
    {
      "inputs": [],
      "name": "symbol",
      "outputs": [
        {
          "internalType": "string",
          "name": "",
          "type": "string"
        }
      ],
      "stateMutability": "view",
      "type": "function"
    },
    {
      "inputs": [],
      "name": "timeToDouble",
      "outputs": [
        {
          "internalType": "uint256",
          "name": "",
          "type": "uint256"
        }
      ],
      "stateMutability": "view",
      "type": "function"
    },
    {
      "inputs": [],
      "name": "totalStaked",
      "outputs": [
        {
          "internalType": "uint256",
          "name": "",
          "type": "uint256"
        }
      ],
      "stateMutability": "view",
      "type": "function"
    },
    {
      "inputs": [],
      "name": "totalSupply",
      "outputs": [
        {
          "internalType": "uint256",
          "name": "",
          "type": "uint256"
        }
      ],
      "stateMutability": "view",
      "type": "function"
    },
    {
      "inputs": [
        {
          "internalType": "address",
          "name": "to",
          "type": "address"
        },
        {
          "internalType": "uint256",
          "name": "amount",
          "type": "uint256"
        }
      ],
      "name": "transfer",
      "outputs": [
        {
          "internalType": "bool",
          "name": "",
          "type": "bool"
        }
      ],
      "stateMutability": "nonpayable",
      "type": "function"
    },
    {
      "inputs": [
        {
          "internalType": "address",
          "name": "from",
          "type": "address"
        },
        {
          "internalType": "address",
          "name": "to",
          "type": "address"
        },
        {
          "internalType": "uint256",
          "name": "amount",
          "type": "uint256"
        }
      ],
      "name": "transferFrom",
      "outputs": [
        {
          "internalType": "bool",
          "name": "",
          "type": "bool"
        }
      ],
      "stateMutability": "nonpayable",
      "type": "function"
    },
    {
      "inputs": [],
      "name": "unclaimedRewards",
      "outputs": [
        {
          "internalType": "uint256",
          "name": "",
          "type": "uint256"
        }
      ],
      "stateMutability": "view",
      "type": "function"
    },
    {
      "inputs": [
        {
          "internalType": "address",
          "name": "_to",
          "type": "address"
        }
      ],
      "name": "unstake",
      "outputs": [],
      "stateMutability": "nonpayable",
      "type": "function"
    },
    {
      "inputs": [
        {
          "internalType": "address",
          "name": "",
          "type": "address"
        },
        {
          "internalType": "uint256",
          "name": "",
          "type": "uint256"
        }
      ],
      "name": "userClaimedPool",
      "outputs": [
        {
          "internalType": "bool",
          "name": "",
          "type": "bool"
        }
      ],
      "stateMutability": "view",
      "type": "function"
    },
    {
      "inputs": [
        {
          "internalType": "address",
          "name": "_user",
          "type": "address"
        }
      ],
      "name": "userTotalWeight",
      "outputs": [
        {
          "internalType": "uint256",
          "name": "userWeight_",
          "type": "uint256"
        }
      ],
      "stateMutability": "view",
      "type": "function"
    },
    {
      "inputs": [
        {
          "internalType": "address",
          "name": "_user",
          "type": "address"
        },
        {
          "internalType": "uint256",
          "name": "_poolId",
          "type": "uint256"
        }
      ],
      "name": "userWeightAtPool",
      "outputs": [
        {
          "internalType": "uint256",
          "name": "userWeight_",
          "type": "uint256"
        }
      ],
      "stateMutability": "view",
      "type": "function"
    }
  ],
  "bytecode": "0x60a06040523480156200001157600080fd5b5060405162003b7638038062003b76833981810160405281019062000037919062000226565b6040518060400160405280600781526020017f4d59546f6b656e000000000000000000000000000000000000000000000000008152506040518060400160405280600281526020017f4d540000000000000000000000000000000000000000000000000000000000008152508160039081620000b4919062000508565b508060049081620000c6919062000508565b50505060016005819055508073ffffffffffffffffffffffffffffffffffffffff1660808173ffffffffffffffffffffffffffffffffffffffff16815250508360088190555082600c8190555081426200012191906200061e565b60106003018190555081426200013891906200061e565b6018600080815260200190815260200160002060030181905550426010600201819055504260186000808152602001908152602001600020600201819055505050505062000659565b600080fd5b6000819050919050565b6200019b8162000186565b8114620001a757600080fd5b50565b600081519050620001bb8162000190565b92915050565b600073ffffffffffffffffffffffffffffffffffffffff82169050919050565b6000620001ee82620001c1565b9050919050565b6200020081620001e1565b81146200020c57600080fd5b50565b6000815190506200022081620001f5565b92915050565b6000806000806080858703121562000243576200024262000181565b5b60006200025387828801620001aa565b94505060206200026687828801620001aa565b93505060406200027987828801620001aa565b92505060606200028c878288016200020f565b91505092959194509250565b600081519050919050565b7f4e487b7100000000000000000000000000000000000000000000000000000000600052604160045260246000fd5b7f4e487b7100000000000000000000000000000000000000000000000000000000600052602260045260246000fd5b600060028204905060018216806200031a57607f821691505b60208210810362000330576200032f620002d2565b5b50919050565b60008190508160005260206000209050919050565b60006020601f8301049050919050565b600082821b905092915050565b6000600883026200039a7fffffffffffffffffffffffffffffffffffffffffffffffffffffffffffffffff826200035b565b620003a686836200035b565b95508019841693508086168417925050509392505050565b6000819050919050565b6000620003e9620003e3620003dd8462000186565b620003be565b62000186565b9050919050565b6000819050919050565b6200040583620003c8565b6200041d6200041482620003f0565b84845462000368565b825550505050565b600090565b6200043462000425565b62000441818484620003fa565b505050565b5b8181101562000469576200045d6000826200042a565b60018101905062000447565b5050565b601f821115620004b857620004828162000336565b6200048d846200034b565b810160208510156200049d578190505b620004b5620004ac856200034b565b83018262000446565b50505b505050565b600082821c905092915050565b6000620004dd60001984600802620004bd565b1980831691505092915050565b6000620004f88383620004ca565b9150826002028217905092915050565b620005138262000298565b67ffffffffffffffff8111156200052f576200052e620002a3565b5b6200053b825462000301565b620005488282856200046d565b600060209050601f8311600181146200058057600084156200056b578287015190505b620005778582620004ea565b865550620005e7565b601f198416620005908662000336565b60005b82811015620005ba5784890151825560018201915060208501945060208101905062000593565b86831015620005da5784890151620005d6601f891682620004ca565b8355505b6001600288020188555050505b505050505050565b7f4e487b7100000000000000000000000000000000000000000000000000000000600052601160045260246000fd5b60006200062b8262000186565b9150620006388362000186565b9250828201905080821115620006535762000652620005ef565b5b92915050565b6080516134ec6200068a60003960008181610c970152818161127a0152818161165701526122b401526134ec6000f3fe608060405234801561001057600080fd5b506004361061021c5760003560e01c8063796d3fae11610125578063c7ee005e116100ad578063eded3fda1161007c578063eded3fda146106e5578063ee5508f914610703578063f2888dbb14610721578063f85f91b41461073d578063fa2a9da91461075b5761021c565b8063c7ee005e14610637578063d429a5ea14610655578063dd62ed3e14610685578063ea905cdf146106b55761021c565b80638f71a265116100f45780638f71a2651461057f57806395d89b411461059d578063a07b10d6146105bb578063a457c2d7146105d7578063a9059cbb146106075761021c565b8063796d3fae146104e157806379c65068146105115780637a260b3f1461052d578063817b1cd2146105615761021c565b80632a745dd0116101a857806357b4702f1161017757806357b4702f1461041157806365c65c1e1461042f578063675cdd631461045f578063692b69ae1461048f57806370a08231146104b15761021c565b80632a745dd014610387578063313ce567146103a557806339509351146103c35780633e0dc34e146103f35761021c565b806315fad854116101ef57806315fad854146102bd57806318160ddd146102ed57806319beb2491461030b5780631e83409a1461033b57806323b872dd146103575761021c565b806306fdde0314610221578063081e3eda1461023f578063095ea7b31461025d578063096397611461028d575b600080fd5b61022961078d565b6040516102369190612817565b60405180910390f35b61024761081f565b6040516102549190612852565b60405180910390f35b610277600480360381019061027291906128fc565b610825565b6040516102849190612957565b60405180910390f35b6102a760048036038101906102a29190612972565b610848565b6040516102b49190612852565b60405180910390f35b6102d760048036038101906102d2919061299f565b610860565b6040516102e49190612852565b60405180910390f35b6102f56108bb565b6040516103029190612852565b60405180910390f35b61032560048036038101906103209190612972565b6108c5565b6040516103329190612852565b60405180910390f35b61035560048036038101906103509190612972565b610962565b005b610371600480360381019061036c91906129cc565b610ce8565b60405161037e9190612957565b60405180910390f35b61038f610d17565b60405161039c9190612852565b60405180910390f35b6103ad610d3f565b6040516103ba9190612a3b565b60405180910390f35b6103dd60048036038101906103d891906128fc565b610d48565b6040516103ea9190612957565b60405180910390f35b6103fb610d7f565b6040516104089190612852565b60405180910390f35b610419610d85565b6040516104269190612852565b60405180910390f35b61044960048036038101906104449190612972565b610d8b565b6040516104569190612852565b60405180910390f35b610479600480360381019061047491906128fc565b610da3565b6040516104869190612852565b60405180910390f35b610497610dc8565b6040516104a8959493929190612a56565b60405180910390f35b6104cb60048036038101906104c69190612972565b610dec565b6040516104d89190612852565b60405180910390f35b6104fb60048036038101906104f691906128fc565b610e35565b6040516105089190612957565b60405180910390f35b61052b600480360381019061052691906128fc565b610e64565b005b6105476004803603810190610542919061299f565b610ee3565b604051610558959493929190612a56565b60405180910390f35b610569610f19565b6040516105769190612852565b60405180910390f35b610587610f1f565b6040516105949190612852565b60405180910390f35b6105a5610f25565b6040516105b29190612817565b60405180910390f35b6105d560048036038101906105d0919061299f565b610fb7565b005b6105f160048036038101906105ec91906128fc565b6111de565b6040516105fe9190612957565b60405180910390f35b610621600480360381019061061c91906128fc565b611255565b60405161062e9190612957565b60405180910390f35b61063f611278565b60405161064c9190612ab8565b60405180910390f35b61066f600480360381019061066a91906128fc565b61129c565b60405161067c9190612852565b60405180910390f35b61069f600480360381019061069a9190612ad3565b611483565b6040516106ac9190612852565b60405180910390f35b6106cf60048036038101906106ca91906128fc565b61150a565b6040516106dc9190612852565b60405180910390f35b6106ed611650565b6040516106fa9190612852565b60405180910390f35b61070b6116fe565b6040516107189190612852565b60405180910390f35b61073b60048036038101906107369190612972565b611704565b005b610745611963565b6040516107529190612852565b60405180910390f35b61077560048036038101906107709190612972565b611969565b60405161078493929190612b13565b60405180910390f35b60606003805461079c90612b79565b80601f01602080910402602001604051908101604052809291908181526020018280546107c890612b79565b80156108155780601f106107ea57610100808354040283529160200191610815565b820191906000526020600020905b8154815290600101906020018083116107f857829003601f168201915b5050505050905090565b600c5481565b600080610830611993565b905061083d81858561199b565b600191505092915050565b60196020528060005260406000206000915090505481565b6000816006541161089d576040517f2083cd4000000000000000000000000000000000000000000000000000000000815260040160405180910390fd5b60186000838152602001908152602001600020600401549050919050565b6000600d54905090565b600080601760008473ffffffffffffffffffffffffffffffffffffffff1673ffffffffffffffffffffffffffffffffffffffff1681526020019081526020016000206040518060600160405290816000820154815260200160018201548152602001600282015481525050905060006109474283602001518460000151611b64565b90508160400151816109599190612bd9565b92505050919050565b61096a611bc4565b61097333611c13565b600080601960003373ffffffffffffffffffffffffffffffffffffffff1673ffffffffffffffffffffffffffffffffffffffff16815260200190815260200160002054905060065481036109f3576040517f845efa9b00000000000000000000000000000000000000000000000000000000815260040160405180910390fd5b5b600654811015610c3157601560003373ffffffffffffffffffffffffffffffffffffffff1673ffffffffffffffffffffffffffffffffffffffff168152602001908152602001600020600082815260200190815260200160002060009054906101000a900460ff16158015610a7157506000610a6f82610860565b115b15610c20576001601560003373ffffffffffffffffffffffffffffffffffffffff1673ffffffffffffffffffffffffffffffffffffffff168152602001908152602001600020600083815260200190815260200160002060006101000a81548160ff0219169083151502179055506000601860008381526020019081526020016000206040518060a00160405290816000820154815260200160018201548152602001600282015481526020016003820154815260200160048201548152505090506000601660003373ffffffffffffffffffffffffffffffffffffffff1673ffffffffffffffffffffffffffffffffffffffff16815260200190815260200160002060008481526020019081526020016000205490506000610b9384610860565b828460000151610ba39190612c0d565b610bad9190612c7e565b90508260000151818460200151610bc49190612bd9565b1115610be15782602001518360000151610bde9190612caf565b90505b8085610bed9190612bd9565b945080601860008681526020019081526020016000206001016000828254610c159190612bd9565b925050819055505050505b80610c2a90612ce3565b90506109f4565b600654601960003373ffffffffffffffffffffffffffffffffffffffff1673ffffffffffffffffffffffffffffffffffffffff1681526020019081526020016000208190555081600b6000828254610c899190612caf565b92505081905550610cdb83837f000000000000000000000000000000000000000000000000000000000000000073ffffffffffffffffffffffffffffffffffffffff16611e179092919063ffffffff16565b5050610ce5611e9d565b50565b600080610cf3611993565b9050610d00858285611ea7565b610d0b858585611f33565b60019150509392505050565b600080610d2942600954600754611b64565b9050600a5481610d399190612bd9565b91505090565b60006012905090565b600080610d53611993565b9050610d74818585610d658589611483565b610d6f9190612bd9565b61199b565b600191505092915050565b60065481565b600a5481565b600e6020528060005260406000206000915090505481565b6016602052816000526040600020602052806000526040600020600091509150505481565b60108060000154908060010154908060020154908060030154908060040154905085565b6000600f60008373ffffffffffffffffffffffffffffffffffffffff1673ffffffffffffffffffffffffffffffffffffffff168152602001908152602001600020549050919050565b60156020528160005260406000206020528060005260406000206000915091509054906101000a900460ff1681565b600073ffffffffffffffffffffffffffffffffffffffff168273ffffffffffffffffffffffffffffffffffffffff1603610ed3576040517f08c379a0000000000000000000000000000000000000000000000000000000008152600401610eca90612d77565b60405180910390fd5b610edf60008383612021565b5050565b60186020528060005260406000206000915090508060000154908060010154908060020154908060030154908060040154905085565b60075481565b60095481565b606060048054610f3490612b79565b80601f0160208091040260200160405190810160405280929190818152602001828054610f6090612b79565b8015610fad5780601f10610f8257610100808354040283529160200191610fad565b820191906000526020600020905b815481529060010190602001808311610f9057829003601f168201915b5050505050905090565b80610fc133610dec565b1015610ff9576040517fb0d79d6700000000000000000000000000000000000000000000000000000000815260040160405180910390fd5b6110033082611255565b5061100c612243565b61101533611c13565b611020600182612425565b80600760008282546110329190612bd9565b925050819055506000601760003373ffffffffffffffffffffffffffffffffffffffff1673ffffffffffffffffffffffffffffffffffffffff168152602001908152602001600020604051806060016040529081600082015481526020016001820154815260200160028201548152505090506000816000015111156110f35760006110c74283602001518460000151611b64565b905082816110d59190612bd9565b826040018181516110e69190612bd9565b91508181525050506110fe565b818160400181815250505b81816000018181516111109190612bd9565b915081815250504281602001818152505080601760003373ffffffffffffffffffffffffffffffffffffffff1673ffffffffffffffffffffffffffffffffffffffff1681526020019081526020016000206000820151816000015560208201518160010155604082015181600201559050503373ffffffffffffffffffffffffffffffffffffffff167f58bc26fb087f2767999c63d19083d6f2a8db51605df3e2901ecd5c0e54591ae8826000015183604001516040516111d2929190612d97565b60405180910390a25050565b6000806111e9611993565b905060006111f78286611483565b90508381101561123c576040517f08c379a000000000000000000000000000000000000000000000000000000000815260040161123390612e32565b60405180910390fd5b611249828686840361199b565b60019250505092915050565b600080611260611993565b905061126d818585611f33565b600191505092915050565b7f000000000000000000000000000000000000000000000000000000000000000081565b600081600654116112d9576040517f2083cd4000000000000000000000000000000000000000000000000000000000815260040160405180910390fd5b6000600e60008573ffffffffffffffffffffffffffffffffffffffff1673ffffffffffffffffffffffffffffffffffffffff1681526020019081526020016000205490506000601760008673ffffffffffffffffffffffffffffffffffffffff1673ffffffffffffffffffffffffffffffffffffffff16815260200190815260200160002060405180606001604052908160008201548152602001600182015481526020016002820154815250509050838211156113e957601660008673ffffffffffffffffffffffffffffffffffffffff1673ffffffffffffffffffffffffffffffffffffffff168152602001908152602001600020600085815260200190815260200160002054925061147b565b6000601860008681526020019081526020016000206040518060a0016040529081600082015481526020016001820154815260200160028201548152602001600382015481526020016004820154815250509050600082600001511115611479576000611463826060015184602001518560000151611b64565b90508260400151816114759190612bd9565b9450505b505b505092915050565b6000600160008473ffffffffffffffffffffffffffffffffffffffff1673ffffffffffffffffffffffffffffffffffffffff16815260200190815260200160002060008373ffffffffffffffffffffffffffffffffffffffff1673ffffffffffffffffffffffffffffffffffffffff16815260200190815260200160002054905092915050565b60008160065411611547576040517f2083cd4000000000000000000000000000000000000000000000000000000000815260040160405180910390fd5b601560008473ffffffffffffffffffffffffffffffffffffffff1673ffffffffffffffffffffffffffffffffffffffff168152602001908152602001600020600083815260200190815260200160002060009054906101000a900460ff16806115b8575060006115b683610860565b145b156115c6576000905061164a565b6000601860008481526020019081526020016000206040518060a001604052908160008201548152602001600182015481526020016002820154815260200160038201548152602001600482015481525050905061162383610860565b61162d858561129c565b826000015161163c9190612c0d565b6116469190612c7e565b9150505b92915050565b6000600b547f000000000000000000000000000000000000000000000000000000000000000073ffffffffffffffffffffffffffffffffffffffff166370a08231306040518263ffffffff1660e01b81526004016116ae9190612ab8565b602060405180830381865afa1580156116cb573d6000803e3d6000fd5b505050506040513d601f19601f820116820180604052508101906116ef9190612e67565b6116f99190612caf565b905090565b60085481565b61170c611bc4565b6000601760003373ffffffffffffffffffffffffffffffffffffffff1673ffffffffffffffffffffffffffffffffffffffff16815260200190815260200160002060405180606001604052908160008201548152602001600182015481526020016002820154815250509050600081600001519050600081036117bb576040517f9fe7bfd900000000000000000000000000000000000000000000000000000000815260040160405180910390fd5b6117c3612243565b6117cc33611c13565b6117d7600082612425565b80600760008282546117e99190612caf565b92505081905550600082600001818152505042826020018181525050600082604001818152505081601760003373ffffffffffffffffffffffffffffffffffffffff1673ffffffffffffffffffffffffffffffffffffffff16815260200190815260200160002060008201518160000155602082015181600101556040820151816002015590505080600f60003073ffffffffffffffffffffffffffffffffffffffff1673ffffffffffffffffffffffffffffffffffffffff16815260200190815260200160002060008282546118c09190612caf565b9250508190555080600f60008573ffffffffffffffffffffffffffffffffffffffff1673ffffffffffffffffffffffffffffffffffffffff16815260200190815260200160002060008282546119169190612bd9565b925050819055507f0f5bb82176feb1b5e747e28471aa92156a04d9f3ab9f45f28e2d704232b93f75338260405161194e929190612e94565b60405180910390a15050611960611e9d565b50565b600b5481565b60176020528060005260406000206000915090508060000154908060010154908060020154905083565b600033905090565b600073ffffffffffffffffffffffffffffffffffffffff168373ffffffffffffffffffffffffffffffffffffffff1603611a0a576040517f08c379a0000000000000000000000000000000000000000000000000000000008152600401611a0190612f2f565b60405180910390fd5b600073ffffffffffffffffffffffffffffffffffffffff168273ffffffffffffffffffffffffffffffffffffffff1603611a79576040517f08c379a0000000000000000000000000000000000000000000000000000000008152600401611a7090612fc1565b60405180910390fd5b80600160008573ffffffffffffffffffffffffffffffffffffffff1673ffffffffffffffffffffffffffffffffffffffff16815260200190815260200160002060008473ffffffffffffffffffffffffffffffffffffffff1673ffffffffffffffffffffffffffffffffffffffff168152602001908152602001600020819055508173ffffffffffffffffffffffffffffffffffffffff168373ffffffffffffffffffffffffffffffffffffffff167f8c5be1e5ebec7d5bd14f71427d1e84f3dd0314c0f7b2291e5b200ac8c7c3b92583604051611b579190612852565b60405180910390a3505050565b6000808385611b739190612caf565b9050600060085482670de0b6b3a7640000611b8e9190612c0d565b611b989190612c7e565b9050670de0b6b3a76400008185611baf9190612c0d565b611bb99190612c7e565b925050509392505050565b600260055403611c09576040517f08c379a0000000000000000000000000000000000000000000000000000000008152600401611c009061302d565b60405180910390fd5b6002600581905550565b6000600e60008373ffffffffffffffffffffffffffffffffffffffff1673ffffffffffffffffffffffffffffffffffffffff1681526020019081526020016000205490506006548114611e13576000601760008473ffffffffffffffffffffffffffffffffffffffff1673ffffffffffffffffffffffffffffffffffffffff16815260200190815260200160002060405180606001604052908160008201548152602001600182015481526020016002820154815250509050600081600001511115611dcb575b600654821015611dca576000601860008481526020019081526020016000206040518060a00160405290816000820154815260200160018201548152602001600282015481526020016003820154815260200160048201548152505090506000611d51826060015184602001518560000151611b64565b9050826040015181611d639190612bd9565b601660008773ffffffffffffffffffffffffffffffffffffffff1673ffffffffffffffffffffffffffffffffffffffff168152602001908152602001600020600086815260200190815260200160002081905550505081611dc390612ce3565b9150611cda565b5b600654600e60008573ffffffffffffffffffffffffffffffffffffffff1673ffffffffffffffffffffffffffffffffffffffff16815260200190815260200160002081905550505b5050565b611e988363a9059cbb60e01b8484604051602401611e36929190612e94565b604051602081830303815290604052907bffffffffffffffffffffffffffffffffffffffffffffffffffffffff19166020820180517bffffffffffffffffffffffffffffffffffffffffffffffffffffffff83818316178352505050506124c3565b505050565b6001600581905550565b6000611eb38484611483565b90507fffffffffffffffffffffffffffffffffffffffffffffffffffffffffffffffff8114611f2d5781811015611f1f576040517f08c379a0000000000000000000000000000000000000000000000000000000008152600401611f1690613099565b60405180910390fd5b611f2c848484840361199b565b5b50505050565b600073ffffffffffffffffffffffffffffffffffffffff168373ffffffffffffffffffffffffffffffffffffffff1603611fa2576040517f08c379a0000000000000000000000000000000000000000000000000000000008152600401611f999061312b565b60405180910390fd5b600073ffffffffffffffffffffffffffffffffffffffff168273ffffffffffffffffffffffffffffffffffffffff1603612011576040517f08c379a0000000000000000000000000000000000000000000000000000000008152600401612008906131bd565b60405180910390fd5b61201c838383612021565b505050565b600073ffffffffffffffffffffffffffffffffffffffff168373ffffffffffffffffffffffffffffffffffffffff16036120735780600d60008282546120679190612bd9565b92505081905550612142565b6000600f60008573ffffffffffffffffffffffffffffffffffffffff1673ffffffffffffffffffffffffffffffffffffffff168152602001908152602001600020549050818110156120fa576040517f08c379a00000000000000000000000000000000000000000000000000000000081526004016120f19061324f565b60405180910390fd5b818103600f60008673ffffffffffffffffffffffffffffffffffffffff1673ffffffffffffffffffffffffffffffffffffffff16815260200190815260200160002081905550505b600073ffffffffffffffffffffffffffffffffffffffff168273ffffffffffffffffffffffffffffffffffffffff160361218b5780600d600082825403925050819055506121d9565b80600f60008473ffffffffffffffffffffffffffffffffffffffff1673ffffffffffffffffffffffffffffffffffffffff168152602001908152602001600020600082825401925050819055505b8173ffffffffffffffffffffffffffffffffffffffff168373ffffffffffffffffffffffffffffffffffffffff167fddf252ad1be2c89b69c2b068fc378daa952ba7f163c4a11628f55a4df523b3ef836040516122369190612852565b60405180910390a3505050565b6010600301544210612423576000612265601060030154600954600754611b64565b9050600a54816122759190612bd9565b601860006006548152602001908152602001600020600401819055506006600081546122a090612ce3565b919050819055506122af612758565b600b547f000000000000000000000000000000000000000000000000000000000000000073ffffffffffffffffffffffffffffffffffffffff166370a08231306040518263ffffffff1660e01b815260040161230b9190612ab8565b602060405180830381865afa158015612328573d6000803e3d6000fd5b505050506040513d601f19601f8201168201806040525081019061234c9190612e67565b6123569190612caf565b81600001818152505042816040018181525050600c54426123779190612bd9565b81606001818152505080601060008201518160000155602082015181600101556040820151816002015560608201518160030155608082015181600401559050508060186000600654815260200190815260200160002060008201518160000155602082015181600101556040820151816002015560608201518160030155608082015181600401559050508060000151600b60008282546124199190612bd9565b9250508190555050505b565b600061243642600954600754611b64565b905080600a600082825461244a9190612bd9565b9250508190555082156124755781600a60008282546124699190612bd9565b925050819055506124b7565b600a54612481336108c5565b1115612494576000600a819055506124b6565b61249d336108c5565b600a60008282546124ae9190612caf565b925050819055505b5b42600981905550505050565b6000612525826040518060400160405280602081526020017f5361666545524332303a206c6f772d6c6576656c2063616c6c206661696c65648152508573ffffffffffffffffffffffffffffffffffffffff1661258b9092919063ffffffff16565b9050600081511480612547575080806020019051810190612546919061329b565b5b612586576040517f08c379a000000000000000000000000000000000000000000000000000000000815260040161257d9061333a565b60405180910390fd5b505050565b606061259a84846000856125a3565b90509392505050565b6060824710156125e8576040517f08c379a00000000000000000000000000000000000000000000000000000000081526004016125df906133cc565b60405180910390fd5b6000808673ffffffffffffffffffffffffffffffffffffffff1685876040516126119190613433565b60006040518083038185875af1925050503d806000811461264e576040519150601f19603f3d011682016040523d82523d6000602084013e612653565b606091505b509150915061266487838387612670565b92505050949350505050565b606083156126d25760008351036126ca5761268a856126e5565b6126c9576040517f08c379a00000000000000000000000000000000000000000000000000000000081526004016126c090613496565b60405180910390fd5b5b8290506126dd565b6126dc8383612708565b5b949350505050565b6000808273ffffffffffffffffffffffffffffffffffffffff163b119050919050565b60008251111561271b5781518083602001fd5b806040517f08c379a000000000000000000000000000000000000000000000000000000000815260040161274f9190612817565b60405180910390fd5b6040518060a0016040528060008152602001600081526020016000815260200160008152602001600081525090565b600081519050919050565b600082825260208201905092915050565b60005b838110156127c15780820151818401526020810190506127a6565b60008484015250505050565b6000601f19601f8301169050919050565b60006127e982612787565b6127f38185612792565b93506128038185602086016127a3565b61280c816127cd565b840191505092915050565b6000602082019050818103600083015261283181846127de565b905092915050565b6000819050919050565b61284c81612839565b82525050565b60006020820190506128676000830184612843565b92915050565b600080fd5b600073ffffffffffffffffffffffffffffffffffffffff82169050919050565b600061289d82612872565b9050919050565b6128ad81612892565b81146128b857600080fd5b50565b6000813590506128ca816128a4565b92915050565b6128d981612839565b81146128e457600080fd5b50565b6000813590506128f6816128d0565b92915050565b600080604083850312156129135761291261286d565b5b6000612921858286016128bb565b9250506020612932858286016128e7565b9150509250929050565b60008115159050919050565b6129518161293c565b82525050565b600060208201905061296c6000830184612948565b92915050565b6000602082840312156129885761298761286d565b5b6000612996848285016128bb565b91505092915050565b6000602082840312156129b5576129b461286d565b5b60006129c3848285016128e7565b91505092915050565b6000806000606084860312156129e5576129e461286d565b5b60006129f3868287016128bb565b9350506020612a04868287016128bb565b9250506040612a15868287016128e7565b9150509250925092565b600060ff82169050919050565b612a3581612a1f565b82525050565b6000602082019050612a506000830184612a2c565b92915050565b600060a082019050612a6b6000830188612843565b612a786020830187612843565b612a856040830186612843565b612a926060830185612843565b612a9f6080830184612843565b9695505050505050565b612ab281612892565b82525050565b6000602082019050612acd6000830184612aa9565b92915050565b60008060408385031215612aea57612ae961286d565b5b6000612af8858286016128bb565b9250506020612b09858286016128bb565b9150509250929050565b6000606082019050612b286000830186612843565b612b356020830185612843565b612b426040830184612843565b949350505050565b7f4e487b7100000000000000000000000000000000000000000000000000000000600052602260045260246000fd5b60006002820490506001821680612b9157607f821691505b602082108103612ba457612ba3612b4a565b5b50919050565b7f4e487b7100000000000000000000000000000000000000000000000000000000600052601160045260246000fd5b6000612be482612839565b9150612bef83612839565b9250828201905080821115612c0757612c06612baa565b5b92915050565b6000612c1882612839565b9150612c2383612839565b9250828202612c3181612839565b91508282048414831517612c4857612c47612baa565b5b5092915050565b7f4e487b7100000000000000000000000000000000000000000000000000000000600052601260045260246000fd5b6000612c8982612839565b9150612c9483612839565b925082612ca457612ca3612c4f565b5b828204905092915050565b6000612cba82612839565b9150612cc583612839565b9250828203905081811115612cdd57612cdc612baa565b5b92915050565b6000612cee82612839565b91507fffffffffffffffffffffffffffffffffffffffffffffffffffffffffffffffff8203612d2057612d1f612baa565b5b600182019050919050565b7f45524332303a206d696e7420746f20746865207a65726f206164647265737300600082015250565b6000612d61601f83612792565b9150612d6c82612d2b565b602082019050919050565b60006020820190508181036000830152612d9081612d54565b9050919050565b6000604082019050612dac6000830185612843565b612db96020830184612843565b9392505050565b7f45524332303a2064656372656173656420616c6c6f77616e63652062656c6f7760008201527f207a65726f000000000000000000000000000000000000000000000000000000602082015250565b6000612e1c602583612792565b9150612e2782612dc0565b604082019050919050565b60006020820190508181036000830152612e4b81612e0f565b9050919050565b600081519050612e61816128d0565b92915050565b600060208284031215612e7d57612e7c61286d565b5b6000612e8b84828501612e52565b91505092915050565b6000604082019050612ea96000830185612aa9565b612eb66020830184612843565b9392505050565b7f45524332303a20617070726f76652066726f6d20746865207a65726f2061646460008201527f7265737300000000000000000000000000000000000000000000000000000000602082015250565b6000612f19602483612792565b9150612f2482612ebd565b604082019050919050565b60006020820190508181036000830152612f4881612f0c565b9050919050565b7f45524332303a20617070726f766520746f20746865207a65726f20616464726560008201527f7373000000000000000000000000000000000000000000000000000000000000602082015250565b6000612fab602283612792565b9150612fb682612f4f565b604082019050919050565b60006020820190508181036000830152612fda81612f9e565b9050919050565b7f5265656e7472616e637947756172643a207265656e7472616e742063616c6c00600082015250565b6000613017601f83612792565b915061302282612fe1565b602082019050919050565b600060208201905081810360008301526130468161300a565b9050919050565b7f45524332303a20696e73756666696369656e7420616c6c6f77616e6365000000600082015250565b6000613083601d83612792565b915061308e8261304d565b602082019050919050565b600060208201905081810360008301526130b281613076565b9050919050565b7f45524332303a207472616e736665722066726f6d20746865207a65726f20616460008201527f6472657373000000000000000000000000000000000000000000000000000000602082015250565b6000613115602583612792565b9150613120826130b9565b604082019050919050565b6000602082019050818103600083015261314481613108565b9050919050565b7f45524332303a207472616e7366657220746f20746865207a65726f206164647260008201527f6573730000000000000000000000000000000000000000000000000000000000602082015250565b60006131a7602383612792565b91506131b28261314b565b604082019050919050565b600060208201905081810360008301526131d68161319a565b9050919050565b7f45524332303a207472616e7366657220616d6f756e742065786365656473206260008201527f616c616e63650000000000000000000000000000000000000000000000000000602082015250565b6000613239602683612792565b9150613244826131dd565b604082019050919050565b600060208201905081810360008301526132688161322c565b9050919050565b6132788161293c565b811461328357600080fd5b50565b6000815190506132958161326f565b92915050565b6000602082840312156132b1576132b061286d565b5b60006132bf84828501613286565b91505092915050565b7f5361666545524332303a204552433230206f7065726174696f6e20646964206e60008201527f6f74207375636365656400000000000000000000000000000000000000000000602082015250565b6000613324602a83612792565b915061332f826132c8565b604082019050919050565b6000602082019050818103600083015261335381613317565b9050919050565b7f416464726573733a20696e73756666696369656e742062616c616e636520666f60008201527f722063616c6c0000000000000000000000000000000000000000000000000000602082015250565b60006133b6602683612792565b91506133c18261335a565b604082019050919050565b600060208201905081810360008301526133e5816133a9565b9050919050565b600081519050919050565b600081905092915050565b600061340d826133ec565b61341781856133f7565b93506134278185602086016127a3565b80840191505092915050565b600061343f8284613402565b915081905092915050565b7f416464726573733a2063616c6c20746f206e6f6e2d636f6e7472616374000000600082015250565b6000613480601d83612792565b915061348b8261344a565b602082019050919050565b600060208201905081810360008301526134af81613473565b905091905056fea26469706673582212203e18ce0583edfb6b5742a2a71a7a0499b5970f4b830b12d88f1cc520ee0cb66164736f6c63430008120033",
  "linkReferences": {},
  "deployedLinkReferences": {}
}